:060000000A128A110E280D
:10000800FE00030EFB000408FC000A08FD000A12AB
:100018008A119D280A128A111128F001F101F201B2
:10002800F301F401F501F60183120313A001A10104
:10003800A201A301A401A501A601A701A801A90184
:1000480083010A128A11EF297603031D2C282D2813
:100058003728831203130618322833283728F60165
:10006800A701A70A3A2883120313A7017503031DE2
:100078003E283F2847288618422843284728F50164
:10008800A601A60A4828A6017403031D4C284D287A
:1000980055280619502851285528F401A501A50A04
:1000A8005628A5017303031D5A285B28632886195F
:1000B8005E285F286328F301A401A40A6428A40128
:1000C8007203031D682869287128061A6C286D2890
:1000D8007128F201A301A30A7228A3017103031D69
:1000E800762877287F28861A7A287B287F28F101A6
:1000F800A201A20A8028A2012903031D84288528B9
:100108008D28061B882889288D28A901A101A10A04
:100118008E28A1012803031D922893289B28861B5B
:10012800962897289B28A801F001F00A9C28F0013E
:1001380008000B1CA028A128E828C328F601F60A05
:10014800E728F501F50AE728F401F40AE728F3019E
:10015800F30AE728F201F20AE728F101F10AE72891
:10016800A901A90AE728A801A80AE728F601F501C4
:10017800F401F301F201F101A901A801E7288312B2
:1001880003130608F900FA017A08003A0319CD2882
:10019800BA2879087F3A0319B728C03A0319B4284E
:1001A800603A0319B128303A0319AE28183A0319EE
:1001B800AB280C3A0319A828063A0319A528033ACC
:1001C8000319A228BA280B10831203130C1EED285A
:1001D800EE28FA280130F9007908A0070A128A11D6
:1001E80003210A128A11831203130C127D088A0054
:1001F8007C0884007B0E8300FE0E7E0E09002B29EE
:100208002708303E990061292C3099006129260879
:10021800303E990061292508303E9900612970080F
:10022800303E990061292308303E9900612922084F
:10023800303E990061292108303E990061290A3031
:10024800990061290D3099006129A0016129831263
:1002580003132008F700F8017808003A0319352934
:1002680061297708013A03190429033A031908296F
:10027800013A03190B29073A03190829013A031906
:100288000F29033A03190829013A031913290F3AC8
:1002980003191729013A03191B29033A03191F29BE
:1002A800013A03191329073A03192329013A0319B3
:1002B8002629143A031929296129080083160317E6
:1002C800880189018316031385010614861406150F
:1002D80086150616861606178617880183120313D5
:1002E80085018601880104300A128A11A0210A12A8
:1002F8008A110A128A11D9210A128A118316031344
:1003080081131514951415159515151695161517A9
:1003180095178B170B178B150B100C1683120313DD
:100328000C12831603131614961416159615161622
:10033800961616179617080083120313AC00C229E5
:10034800831603130F088F3940388F000F14D829EC
:10035800831603130F088F3950388F000F14D829CC
:10036800831603130F088F3960388F000F14D829AC
:100378007030831603138F040F14D8292C08AA0091
:10038800AB012B08003A0319CA29D8292A08013ACF
:100398000319A429033A0319AC29063A0319B42905
:1003A8000C3A0319BC29D82908008316031318121C
:1003B80018151813831603178711831603139A0148
:1003C80019309900831203139817181318128316FB
:1003D8000313981608000A128A1162210A128A1158
:1003E8000A128A1128200A128A11F4290A128A117B
:0203F8000E28CD
:04400E00D420FF3F7C
:00000001FF
