:060000000A128A110E280D
:10000800FE00030EFB000408FC000A08FD000A12AB
:100018008A1193280A128A111128F001F101F201BC
:10002800F301F401F501F60183120313A001A10104
:10003800A201A301A401A501A601A70183010A1237
:100048008A11C5297603031D2A282B2833288312F1
:1000580003130618302831283328F601A601750342
:10006800031D3728382841288312031386183D2892
:100078003E284128F501A601A60A7403031D452858
:1000880046284E288312031306194B284C284E285D
:10009800F401A5017303031D522853285C28831219
:1000A80003138619582859285C28F301A501A50AC5
:1000B8007203031D60286128692883120313061A36
:1000C800662867286928F201A4017103031D6D28B9
:1000D8006E28772883120313861A732874287728C2
:1000E800F101A401A40A7003031D7B287C2884283D
:1000F80083120313061B812882288428F001A30198
:10010800831203132703031D8A288B289228861B32
:100118008E288F289228A701A301A30A08000B1C88
:1001280096289728D528B028F601F60AD428F5018C
:10013800F50AD428F401F40AD428F301F30AD428E0
:10014800F201F20AD428F101F10AD428F001F00AE8
:10015800D428A701A70AD428831203130608F90094
:10016800FA017A08003A0319BA28D42879087F3A9C
:100178000319AD28C03A0319AA28603A0319A72819
:10018800303A0319A428183A0319A1280C3A03197C
:100198009E28063A03199B28033A03199828D4285D
:1001A8000B10831203130C1EDA28DB28E728013012
:1001B800F9007908A2070A128A11F0200A128A1196
:1001C800831203130C127D088A007C0884007B0EBE
:1001D8008300FE0E7E0E09000C292508303E99008A
:1001E80039292C30990039292608303E99003929B7
:1001F8002408303E990039292308303E99003929CE
:100208000A30990039290D3099003929A201392974
:10021800831203132208F700F8017808003A03193B
:10022800162939297708003A03193929013A031997
:10023800F128033A0319F528013A0319F828073A6F
:100248000319F528013A0319FC28033A0319F5287C
:10025800013A031900290F3A03190429013A03192D
:100268000729063A03190A293929080083160317AA
:10027800880189018316031385010614861406155F
:100288008615061686160617861788018312031325
:1002980085018601880104300A128A1176210A1222
:1002A8008A110A128A11AF210A128A1183160313BE
:1002B80081131514951415159515151695161517FA
:1002C80095178B170B178B150B10161496141615FC
:1002D800961516169616161796170C1683120313EC
:1002E8000C12080083120313AA009829831603131B
:1002F8000F088F3940388F000F14AE298316031367
:100308000F088F3950388F000F14AE298316031346
:100318000F088F3960388F000F14AE29703083169C
:1003280003138F040F14AE292A08A800A90129086D
:10033800003A0319A029AE292808013A03197A2995
:10034800033A03198229063A03198A290C3A031930
:100358009229AE29080083160313181218151813CA
:10036800831603178711831603139A01193099000E
:100378008312031398171813181283160313981669
:1003880008000A128A113A210A128A110A128A11DD
:0E03980026200A128A11CA290A128A110E287A
:04400E00D420FF3F7C
:00000001FF
