:060000000A128A110E280D
:10000800FE00030EF8000408F9000A08FA000A12B4
:100018008A119F280A128A111128F001F101F201B0
:10002800F301F401F50183120313A001A101A20158
:10003800A301A401A501A601A701A801A901AA017C
:1000480083010A128A11E7297503031D2C282D281C
:100058003928831203130618322833283928F50162
:10006800A701A70A013088003C2883120313A701BF
:100078007403031D40284128492886184428452828
:100088004928F401A601A60A4A28A6017303031DFC
:100098004E284F2857280619522853285728F30165
:1000A800A501A50A5828A5017203031D5C285D282F
:1000B80065288619602861286528F201A401A40A28
:1000C8006628A4017103031D6A286B287328061A81
:1000D8006E286F287328F101A301A30A7428A301CD
:1000E8002A03031D782879288128861A7C287D28E8
:1000F8008128AA01A201A20A8228A2012903031DBC
:10010800862887288F28061B8A288B288F28A901EC
:10011800A101A10A9028A1012803031D942895286C
:100128009D28861B982899289D28A801F001F00A87
:100138009E28F00108000B1CA228A328EA28C5283D
:10014800F501F50AE928F401F40AE928F301F30AAC
:10015800E928F201F20AE928F101F10AE928AA01DD
:10016800AA0AE928A901A90AE928A801A80AE928E8
:10017800F501F401F301F201F101AA01A901A801B5
:10018800E928831203130608F600F7017708003AF6
:100198000319CF28BC2876087F3A0319B928C03A32
:1001A8000319B628603A0319B328303A0319B0285E
:1001B800183A0319AD280C3A0319AA28063A031964
:1001C800A728033A0319A428BC280B108312031389
:1001D8000C1EEF28F028F5280130F6007608A00755
:1001E8000C127A088A0079088400780E8300FE0EC3
:1001F8007E0E09002529353099005B292C3099009D
:100208005B292608303E99005B292508303E990075
:100218005B297008303E99005B292308303E99001D
:100228005B292208303E99005B292108303E99005D
:100238005B290A3099005B290D3099005B29A001E0
:100248005B29831203132008AB00AC012C08003A89
:1002580003192F295B292B08013A0319FF28033AB0
:1002680003190229013A03190529073A0319022932
:10027800013A03190929033A03190229013A031912
:100288000D290F3A03191129013A03191529033ABF
:1002980003191929013A03190D29073A03191D29C8
:1002A800013A03192029143A031923295B29080064
:1002B8008316031788018901831603138501061421
:1002C80086140615861506168616061786178801DB
:1002D8008312031385018601880104300A128A11EA
:1002E80098210A128A110A128A11D1210A128A1136
:1002F80083160313811315149514151595151516E2
:100308009516151795178B170B178B150B101614B9
:1003180096141615961516169616161796170C1681
:10032800831203130C12080083120313AD00BA29B9
:10033800831603130F088F3940388F000F14D02904
:10034800831603130F088F3950388F000F14D029E4
:10035800831603130F088F3960388F000F14D029C4
:100368007030831603138F040F14D0292D08AB00A7
:10037800AC012C08003A0319C229D0292B08013AEC
:1003880003199C29033A0319A429063A0319AC292D
:100398000C3A0319B429D02908008316031318123C
:1003A80018151813831603178711831603139A0158
:1003B800193099008312031398171813181283160B
:1003C8000313981608000A128A115C210A128A116E
:1003D8000A128A1128200A128A110A128A11FE208A
:0C03E8000A128A11EC290A128A110E2850
:04400E00D420FF3F7C
:00000001FF
